{
  "_format": "hh-sol-artifact-1",
  "contractName": "Proxy",
  "sourceName": "contracts/Proxy.sol",
  "abi": [
    {
      "anonymous": false,
      "inputs": [],
      "name": "StartTransfer",
      "type": "event"
    },
    {
      "inputs": [],
      "name": "getNumber",
      "outputs": [
        {
          "internalType": "int256",
          "name": "",
          "type": "int256"
        }
      ],
      "stateMutability": "pure",
      "type": "function"
    },
    {
      "inputs": [],
      "name": "getWalletAddress",
      "outputs": [
        {
          "internalType": "address",
          "name": "",
          "type": "address"
        }
      ],
      "stateMutability": "nonpayable",
      "type": "function"
    },
    {
      "inputs": [
        {
          "internalType": "address",
          "name": "_walletAddr",
          "type": "address"
        }
      ],
      "name": "setWalletAddress",
      "outputs": [],
      "stateMutability": "nonpayable",
      "type": "function"
    },
    {
      "inputs": [],
      "name": "startTransfer",
      "outputs": [],
      "stateMutability": "nonpayable",
      "type": "function"
    }
  ],
  "bytecode": "0x608060405234801561001057600080fd5b506102fa806100206000396000f3fe608060405234801561001057600080fd5b506004361061004c5760003560e01c806304d2dec614610051578063829c34281461006f578063ac1a386a14610079578063f2c9ecd814610095575b600080fd5b6100596100b3565b6040516100669190610217565b60405180910390f35b6100776100dc565b005b610093600480360381019061008e9190610263565b61018a565b005b61009d6101cd565b6040516100aa91906102a9565b60405180910390f35b60008060009054906101000a900473ffffffffffffffffffffffffffffffffffffffff16905090565b60008054906101000a900473ffffffffffffffffffffffffffffffffffffffff1673ffffffffffffffffffffffffffffffffffffffff1663829c34286040518163ffffffff1660e01b8152600401600060405180830381600087803b15801561014457600080fd5b505af1158015610158573d6000803e3d6000fd5b505050507f0ec7b0925c2fb854d28c0c4ae832ee922219f23b0b0440fe2916ec08bc0a8d6260405160405180910390a1565b806000806101000a81548173ffffffffffffffffffffffffffffffffffffffff021916908373ffffffffffffffffffffffffffffffffffffffff16021790555050565b60006002905090565b600073ffffffffffffffffffffffffffffffffffffffff82169050919050565b6000610201826101d6565b9050919050565b610211816101f6565b82525050565b600060208201905061022c6000830184610208565b92915050565b600080fd5b610240816101f6565b811461024b57600080fd5b50565b60008135905061025d81610237565b92915050565b60006020828403121561027957610278610232565b5b60006102878482850161024e565b91505092915050565b6000819050919050565b6102a381610290565b82525050565b60006020820190506102be600083018461029a565b9291505056fea2646970667358221220fa2ba9310d0c863c8c7550f3a080ad4184e3d0b7df41702e181adcebd77b5cd764736f6c63430008110033",
  "linkReferences": {},
  "deployedLinkReferences": {}
}