{
  "_format": "hh-sol-artifact-1",
  "contractName": "Token",
  "sourceName": "contracts/Token.sol",
  "abi": [
    {
      "inputs": [],
      "stateMutability": "nonpayable",
      "type": "constructor"
    },
    {
      "anonymous": false,
      "inputs": [
        {
          "indexed": true,
          "internalType": "address",
          "name": "owner",
          "type": "address"
        },
        {
          "indexed": true,
          "internalType": "address",
          "name": "spender",
          "type": "address"
        },
        {
          "indexed": false,
          "internalType": "uint256",
          "name": "value",
          "type": "uint256"
        }
      ],
      "name": "Approval",
      "type": "event"
    },
    {
      "anonymous": false,
      "inputs": [],
      "name": "Mint",
      "type": "event"
    },
    {
      "anonymous": false,
      "inputs": [],
      "name": "SimulateTransfer",
      "type": "event"
    },
    {
      "anonymous": false,
      "inputs": [
        {
          "indexed": true,
          "internalType": "address",
          "name": "from",
          "type": "address"
        },
        {
          "indexed": true,
          "internalType": "address",
          "name": "to",
          "type": "address"
        },
        {
          "indexed": false,
          "internalType": "uint256",
          "name": "value",
          "type": "uint256"
        }
      ],
      "name": "Transfer",
      "type": "event"
    },
    {
      "inputs": [
        {
          "internalType": "address",
          "name": "owner",
          "type": "address"
        },
        {
          "internalType": "address",
          "name": "spender",
          "type": "address"
        }
      ],
      "name": "allowance",
      "outputs": [
        {
          "internalType": "uint256",
          "name": "",
          "type": "uint256"
        }
      ],
      "stateMutability": "view",
      "type": "function"
    },
    {
      "inputs": [
        {
          "internalType": "address",
          "name": "spender",
          "type": "address"
        },
        {
          "internalType": "uint256",
          "name": "amount",
          "type": "uint256"
        }
      ],
      "name": "approve",
      "outputs": [
        {
          "internalType": "bool",
          "name": "",
          "type": "bool"
        }
      ],
      "stateMutability": "nonpayable",
      "type": "function"
    },
    {
      "inputs": [
        {
          "internalType": "address",
          "name": "account",
          "type": "address"
        }
      ],
      "name": "balanceOf",
      "outputs": [
        {
          "internalType": "uint256",
          "name": "",
          "type": "uint256"
        }
      ],
      "stateMutability": "view",
      "type": "function"
    },
    {
      "inputs": [],
      "name": "decimals",
      "outputs": [
        {
          "internalType": "uint8",
          "name": "",
          "type": "uint8"
        }
      ],
      "stateMutability": "view",
      "type": "function"
    },
    {
      "inputs": [
        {
          "internalType": "address",
          "name": "spender",
          "type": "address"
        },
        {
          "internalType": "uint256",
          "name": "subtractedValue",
          "type": "uint256"
        }
      ],
      "name": "decreaseAllowance",
      "outputs": [
        {
          "internalType": "bool",
          "name": "",
          "type": "bool"
        }
      ],
      "stateMutability": "nonpayable",
      "type": "function"
    },
    {
      "inputs": [],
      "name": "getNumber",
      "outputs": [
        {
          "internalType": "int256",
          "name": "",
          "type": "int256"
        }
      ],
      "stateMutability": "nonpayable",
      "type": "function"
    },
    {
      "inputs": [],
      "name": "getProxyAddress",
      "outputs": [
        {
          "internalType": "address",
          "name": "",
          "type": "address"
        }
      ],
      "stateMutability": "nonpayable",
      "type": "function"
    },
    {
      "inputs": [
        {
          "internalType": "address",
          "name": "spender",
          "type": "address"
        },
        {
          "internalType": "uint256",
          "name": "addedValue",
          "type": "uint256"
        }
      ],
      "name": "increaseAllowance",
      "outputs": [
        {
          "internalType": "bool",
          "name": "",
          "type": "bool"
        }
      ],
      "stateMutability": "nonpayable",
      "type": "function"
    },
    {
      "inputs": [],
      "name": "mint",
      "outputs": [],
      "stateMutability": "nonpayable",
      "type": "function"
    },
    {
      "inputs": [],
      "name": "name",
      "outputs": [
        {
          "internalType": "string",
          "name": "",
          "type": "string"
        }
      ],
      "stateMutability": "view",
      "type": "function"
    },
    {
      "inputs": [
        {
          "internalType": "address",
          "name": "_proxyAddr",
          "type": "address"
        }
      ],
      "name": "setProxyAddress",
      "outputs": [],
      "stateMutability": "nonpayable",
      "type": "function"
    },
    {
      "inputs": [],
      "name": "simulateTransfer",
      "outputs": [],
      "stateMutability": "nonpayable",
      "type": "function"
    },
    {
      "inputs": [],
      "name": "symbol",
      "outputs": [
        {
          "internalType": "string",
          "name": "",
          "type": "string"
        }
      ],
      "stateMutability": "view",
      "type": "function"
    },
    {
      "inputs": [],
      "name": "totalSupply",
      "outputs": [
        {
          "internalType": "uint256",
          "name": "",
          "type": "uint256"
        }
      ],
      "stateMutability": "view",
      "type": "function"
    },
    {
      "inputs": [
        {
          "internalType": "address",
          "name": "to",
          "type": "address"
        },
        {
          "internalType": "uint256",
          "name": "amount",
          "type": "uint256"
        }
      ],
      "name": "transfer",
      "outputs": [
        {
          "internalType": "bool",
          "name": "",
          "type": "bool"
        }
      ],
      "stateMutability": "nonpayable",
      "type": "function"
    },
    {
      "inputs": [
        {
          "internalType": "address",
          "name": "from",
          "type": "address"
        },
        {
          "internalType": "address",
          "name": "to",
          "type": "address"
        },
        {
          "internalType": "uint256",
          "name": "amount",
          "type": "uint256"
        }
      ],
      "name": "transferFrom",
      "outputs": [
        {
          "internalType": "bool",
          "name": "",
          "type": "bool"
        }
      ],
      "stateMutability": "nonpayable",
      "type": "function"
    }
  ],
  "bytecode": "0x60806040523480156200001157600080fd5b506040518060400160405280600581526020017f546f6b656e0000000000000000000000000000000000000000000000000000008152506040518060400160405280600381526020017f544b4e000000000000000000000000000000000000000000000000000000000081525081600390816200008f9190620004b6565b508060049081620000a19190620004b6565b505050620000bf3368056bc75e2d63100000620000c560201b60201c565b620006b8565b600073ffffffffffffffffffffffffffffffffffffffff168273ffffffffffffffffffffffffffffffffffffffff160362000137576040517f08c379a00000000000000000000000000000000000000000000000000000000081526004016200012e90620005fe565b60405180910390fd5b6200014b600083836200023260201b60201c565b80600260008282546200015f91906200064f565b92505081905550806000808473ffffffffffffffffffffffffffffffffffffffff1673ffffffffffffffffffffffffffffffffffffffff168152602001908152602001600020600082825401925050819055508173ffffffffffffffffffffffffffffffffffffffff16600073ffffffffffffffffffffffffffffffffffffffff167fddf252ad1be2c89b69c2b068fc378daa952ba7f163c4a11628f55a4df523b3ef836040516200021291906200069b565b60405180910390a36200022e600083836200023760201b60201c565b5050565b505050565b505050565b600081519050919050565b7f4e487b7100000000000000000000000000000000000000000000000000000000600052604160045260246000fd5b7f4e487b7100000000000000000000000000000000000000000000000000000000600052602260045260246000fd5b60006002820490506001821680620002be57607f821691505b602082108103620002d457620002d362000276565b5b50919050565b60008190508160005260206000209050919050565b60006020601f8301049050919050565b600082821b905092915050565b6000600883026200033e7fffffffffffffffffffffffffffffffffffffffffffffffffffffffffffffffff82620002ff565b6200034a8683620002ff565b95508019841693508086168417925050509392505050565b6000819050919050565b6000819050919050565b600062000397620003916200038b8462000362565b6200036c565b62000362565b9050919050565b6000819050919050565b620003b38362000376565b620003cb620003c2826200039e565b8484546200030c565b825550505050565b600090565b620003e2620003d3565b620003ef818484620003a8565b505050565b5b8181101562000417576200040b600082620003d8565b600181019050620003f5565b5050565b601f82111562000466576200043081620002da565b6200043b84620002ef565b810160208510156200044b578190505b620004636200045a85620002ef565b830182620003f4565b50505b505050565b600082821c905092915050565b60006200048b600019846008026200046b565b1980831691505092915050565b6000620004a6838362000478565b9150826002028217905092915050565b620004c1826200023c565b67ffffffffffffffff811115620004dd57620004dc62000247565b5b620004e98254620002a5565b620004f68282856200041b565b600060209050601f8311600181146200052e576000841562000519578287015190505b62000525858262000498565b86555062000595565b601f1984166200053e86620002da565b60005b82811015620005685784890151825560018201915060208501945060208101905062000541565b8683101562000588578489015162000584601f89168262000478565b8355505b6001600288020188555050505b505050505050565b600082825260208201905092915050565b7f45524332303a206d696e7420746f20746865207a65726f206164647265737300600082015250565b6000620005e6601f836200059d565b9150620005f382620005ae565b602082019050919050565b600060208201905081810360008301526200061981620005d7565b9050919050565b7f4e487b7100000000000000000000000000000000000000000000000000000000600052601160045260246000fd5b60006200065c8262000362565b9150620006698362000362565b925082820190508082111562000684576200068362000620565b5b92915050565b620006958162000362565b82525050565b6000602082019050620006b260008301846200068a565b92915050565b6114a580620006c86000396000f3fe608060405234801561001057600080fd5b50600436106101005760003560e01c806346a7dadc11610097578063a457c2d711610066578063a457c2d71461028b578063a9059cbb146102bb578063dd62ed3e146102eb578063f2c9ecd81461031b57610100565b806346a7dadc1461021757806370a08231146102335780638ec93d6d1461026357806395d89b411461026d57610100565b806323b872dd116100d357806323b872dd1461017b578063313ce567146101ab57806339509351146101c957806343a73d9a146101f957610100565b806306fdde0314610105578063095ea7b3146101235780631249c58b1461015357806318160ddd1461015d575b600080fd5b61010d610339565b60405161011a9190610d24565b60405180910390f35b61013d60048036038101906101389190610ddf565b6103cb565b60405161014a9190610e3a565b60405180910390f35b61015b6103ee565b005b61016561041c565b6040516101729190610e64565b60405180910390f35b61019560048036038101906101909190610e7f565b610426565b6040516101a29190610e3a565b60405180910390f35b6101b3610455565b6040516101c09190610eee565b60405180910390f35b6101e360048036038101906101de9190610ddf565b61045e565b6040516101f09190610e3a565b60405180910390f35b610201610495565b60405161020e9190610f18565b60405180910390f35b610231600480360381019061022c9190610f33565b6104bf565b005b61024d60048036038101906102489190610f33565b610503565b60405161025a9190610e64565b60405180910390f35b61026b61054b565b005b6102756105fb565b6040516102829190610d24565b60405180910390f35b6102a560048036038101906102a09190610ddf565b61068d565b6040516102b29190610e3a565b60405180910390f35b6102d560048036038101906102d09190610ddf565b610704565b6040516102e29190610e3a565b60405180910390f35b61030560048036038101906103009190610f60565b610727565b6040516103129190610e64565b60405180910390f35b6103236107ae565b6040516103309190610fb9565b60405180910390f35b60606003805461034890611003565b80601f016020809104026020016040519081016040528092919081815260200182805461037490611003565b80156103c15780601f10610396576101008083540402835291602001916103c1565b820191906000526020600020905b8154815290600101906020018083116103a457829003601f168201915b5050505050905090565b6000806103d66107b7565b90506103e38185856107bf565b600191505092915050565b7f34c73884fbbb790762253ae313e57da96c00670344647f0cb8d41ee92b9f197160405160405180910390a1565b6000600254905090565b6000806104316107b7565b905061043e858285610988565b610449858585610a14565b60019150509392505050565b60006012905090565b6000806104696107b7565b905061048a81858561047b8589610727565b6104859190611063565b6107bf565b600191505092915050565b6000600560009054906101000a900473ffffffffffffffffffffffffffffffffffffffff16905090565b80600560006101000a81548173ffffffffffffffffffffffffffffffffffffffff021916908373ffffffffffffffffffffffffffffffffffffffff16021790555050565b60008060008373ffffffffffffffffffffffffffffffffffffffff1673ffffffffffffffffffffffffffffffffffffffff168152602001908152602001600020549050919050565b600560009054906101000a900473ffffffffffffffffffffffffffffffffffffffff1673ffffffffffffffffffffffffffffffffffffffff1663829c34286040518163ffffffff1660e01b8152600401600060405180830381600087803b1580156105b557600080fd5b505af11580156105c9573d6000803e3d6000fd5b505050507ff0c1c8ea565626dffdbee5e00cff979e4a3670ecd5edd0a4b69a18739cd8986260405160405180910390a1565b60606004805461060a90611003565b80601f016020809104026020016040519081016040528092919081815260200182805461063690611003565b80156106835780601f1061065857610100808354040283529160200191610683565b820191906000526020600020905b81548152906001019060200180831161066657829003601f168201915b5050505050905090565b6000806106986107b7565b905060006106a68286610727565b9050838110156106eb576040517f08c379a00000000000000000000000000000000000000000000000000000000081526004016106e290611109565b60405180910390fd5b6106f882868684036107bf565b60019250505092915050565b60008061070f6107b7565b905061071c818585610a14565b600191505092915050565b6000600160008473ffffffffffffffffffffffffffffffffffffffff1673ffffffffffffffffffffffffffffffffffffffff16815260200190815260200160002060008373ffffffffffffffffffffffffffffffffffffffff1673ffffffffffffffffffffffffffffffffffffffff16815260200190815260200160002054905092915050565b60006001905090565b600033905090565b600073ffffffffffffffffffffffffffffffffffffffff168373ffffffffffffffffffffffffffffffffffffffff160361082e576040517f08c379a00000000000000000000000000000000000000000000000000000000081526004016108259061119b565b60405180910390fd5b600073ffffffffffffffffffffffffffffffffffffffff168273ffffffffffffffffffffffffffffffffffffffff160361089d576040517f08c379a00000000000000000000000000000000000000000000000000000000081526004016108949061122d565b60405180910390fd5b80600160008573ffffffffffffffffffffffffffffffffffffffff1673ffffffffffffffffffffffffffffffffffffffff16815260200190815260200160002060008473ffffffffffffffffffffffffffffffffffffffff1673ffffffffffffffffffffffffffffffffffffffff168152602001908152602001600020819055508173ffffffffffffffffffffffffffffffffffffffff168373ffffffffffffffffffffffffffffffffffffffff167f8c5be1e5ebec7d5bd14f71427d1e84f3dd0314c0f7b2291e5b200ac8c7c3b9258360405161097b9190610e64565b60405180910390a3505050565b60006109948484610727565b90507fffffffffffffffffffffffffffffffffffffffffffffffffffffffffffffffff8114610a0e5781811015610a00576040517f08c379a00000000000000000000000000000000000000000000000000000000081526004016109f790611299565b60405180910390fd5b610a0d84848484036107bf565b5b50505050565b600073ffffffffffffffffffffffffffffffffffffffff168373ffffffffffffffffffffffffffffffffffffffff1603610a83576040517f08c379a0000000000000000000000000000000000000000000000000000000008152600401610a7a9061132b565b60405180910390fd5b600073ffffffffffffffffffffffffffffffffffffffff168273ffffffffffffffffffffffffffffffffffffffff1603610af2576040517f08c379a0000000000000000000000000000000000000000000000000000000008152600401610ae9906113bd565b60405180910390fd5b610afd838383610c8a565b60008060008573ffffffffffffffffffffffffffffffffffffffff1673ffffffffffffffffffffffffffffffffffffffff16815260200190815260200160002054905081811015610b83576040517f08c379a0000000000000000000000000000000000000000000000000000000008152600401610b7a9061144f565b60405180910390fd5b8181036000808673ffffffffffffffffffffffffffffffffffffffff1673ffffffffffffffffffffffffffffffffffffffff16815260200190815260200160002081905550816000808573ffffffffffffffffffffffffffffffffffffffff1673ffffffffffffffffffffffffffffffffffffffff168152602001908152602001600020600082825401925050819055508273ffffffffffffffffffffffffffffffffffffffff168473ffffffffffffffffffffffffffffffffffffffff167fddf252ad1be2c89b69c2b068fc378daa952ba7f163c4a11628f55a4df523b3ef84604051610c719190610e64565b60405180910390a3610c84848484610c8f565b50505050565b505050565b505050565b600081519050919050565b600082825260208201905092915050565b60005b83811015610cce578082015181840152602081019050610cb3565b60008484015250505050565b6000601f19601f8301169050919050565b6000610cf682610c94565b610d008185610c9f565b9350610d10818560208601610cb0565b610d1981610cda565b840191505092915050565b60006020820190508181036000830152610d3e8184610ceb565b905092915050565b600080fd5b600073ffffffffffffffffffffffffffffffffffffffff82169050919050565b6000610d7682610d4b565b9050919050565b610d8681610d6b565b8114610d9157600080fd5b50565b600081359050610da381610d7d565b92915050565b6000819050919050565b610dbc81610da9565b8114610dc757600080fd5b50565b600081359050610dd981610db3565b92915050565b60008060408385031215610df657610df5610d46565b5b6000610e0485828601610d94565b9250506020610e1585828601610dca565b9150509250929050565b60008115159050919050565b610e3481610e1f565b82525050565b6000602082019050610e4f6000830184610e2b565b92915050565b610e5e81610da9565b82525050565b6000602082019050610e796000830184610e55565b92915050565b600080600060608486031215610e9857610e97610d46565b5b6000610ea686828701610d94565b9350506020610eb786828701610d94565b9250506040610ec886828701610dca565b9150509250925092565b600060ff82169050919050565b610ee881610ed2565b82525050565b6000602082019050610f036000830184610edf565b92915050565b610f1281610d6b565b82525050565b6000602082019050610f2d6000830184610f09565b92915050565b600060208284031215610f4957610f48610d46565b5b6000610f5784828501610d94565b91505092915050565b60008060408385031215610f7757610f76610d46565b5b6000610f8585828601610d94565b9250506020610f9685828601610d94565b9150509250929050565b6000819050919050565b610fb381610fa0565b82525050565b6000602082019050610fce6000830184610faa565b92915050565b7f4e487b7100000000000000000000000000000000000000000000000000000000600052602260045260246000fd5b6000600282049050600182168061101b57607f821691505b60208210810361102e5761102d610fd4565b5b50919050565b7f4e487b7100000000000000000000000000000000000000000000000000000000600052601160045260246000fd5b600061106e82610da9565b915061107983610da9565b925082820190508082111561109157611090611034565b5b92915050565b7f45524332303a2064656372656173656420616c6c6f77616e63652062656c6f7760008201527f207a65726f000000000000000000000000000000000000000000000000000000602082015250565b60006110f3602583610c9f565b91506110fe82611097565b604082019050919050565b60006020820190508181036000830152611122816110e6565b9050919050565b7f45524332303a20617070726f76652066726f6d20746865207a65726f2061646460008201527f7265737300000000000000000000000000000000000000000000000000000000602082015250565b6000611185602483610c9f565b915061119082611129565b604082019050919050565b600060208201905081810360008301526111b481611178565b9050919050565b7f45524332303a20617070726f766520746f20746865207a65726f20616464726560008201527f7373000000000000000000000000000000000000000000000000000000000000602082015250565b6000611217602283610c9f565b9150611222826111bb565b604082019050919050565b600060208201905081810360008301526112468161120a565b9050919050565b7f45524332303a20696e73756666696369656e7420616c6c6f77616e6365000000600082015250565b6000611283601d83610c9f565b915061128e8261124d565b602082019050919050565b600060208201905081810360008301526112b281611276565b9050919050565b7f45524332303a207472616e736665722066726f6d20746865207a65726f20616460008201527f6472657373000000000000000000000000000000000000000000000000000000602082015250565b6000611315602583610c9f565b9150611320826112b9565b604082019050919050565b6000602082019050818103600083015261134481611308565b9050919050565b7f45524332303a207472616e7366657220746f20746865207a65726f206164647260008201527f6573730000000000000000000000000000000000000000000000000000000000602082015250565b60006113a7602383610c9f565b91506113b28261134b565b604082019050919050565b600060208201905081810360008301526113d68161139a565b9050919050565b7f45524332303a207472616e7366657220616d6f756e742065786365656473206260008201527f616c616e63650000000000000000000000000000000000000000000000000000602082015250565b6000611439602683610c9f565b9150611444826113dd565b604082019050919050565b600060208201905081810360008301526114688161142c565b905091905056fea2646970667358221220b3ef457ab2904b8001f49b7b716a7074ed01309b008fba2e60417d2f6a742f2464736f6c63430008110033",
  "linkReferences": {},
  "deployedLinkReferences": {}
}