{
  "_format": "hh-sol-artifact-1",
  "contractName": "Wallet",
  "sourceName": "contracts/Wallet.sol",
  "abi": [
    {
      "inputs": [],
      "stateMutability": "nonpayable",
      "type": "constructor"
    },
    {
      "anonymous": false,
      "inputs": [],
      "name": "MintSmartTokensForTokens",
      "type": "event"
    },
    {
      "anonymous": false,
      "inputs": [
        {
          "indexed": false,
          "internalType": "address",
          "name": "sender",
          "type": "address"
        },
        {
          "indexed": false,
          "internalType": "uint256",
          "name": "amount",
          "type": "uint256"
        },
        {
          "indexed": false,
          "internalType": "uint256",
          "name": "balance",
          "type": "uint256"
        }
      ],
      "name": "Receive",
      "type": "event"
    },
    {
      "anonymous": false,
      "inputs": [],
      "name": "StartTransfer",
      "type": "event"
    },
    {
      "inputs": [],
      "name": "getTokenAddress",
      "outputs": [
        {
          "internalType": "address",
          "name": "",
          "type": "address"
        }
      ],
      "stateMutability": "nonpayable",
      "type": "function"
    },
    {
      "inputs": [],
      "name": "owner",
      "outputs": [
        {
          "internalType": "address payable",
          "name": "",
          "type": "address"
        }
      ],
      "stateMutability": "view",
      "type": "function"
    },
    {
      "inputs": [
        {
          "internalType": "address",
          "name": "_tokenAddr",
          "type": "address"
        }
      ],
      "name": "setTokenAddress",
      "outputs": [],
      "stateMutability": "nonpayable",
      "type": "function"
    },
    {
      "inputs": [],
      "name": "startTransfer",
      "outputs": [],
      "stateMutability": "nonpayable",
      "type": "function"
    },
    {
      "stateMutability": "payable",
      "type": "receive"
    }
  ],
  "bytecode": "0x608060405234801561001057600080fd5b5033600160006101000a81548173ffffffffffffffffffffffffffffffffffffffff021916908373ffffffffffffffffffffffffffffffffffffffff160217905550610562806100616000396000f3fe6080604052600436106100435760003560e01c806310fe9ae81461009e57806326a4e8d2146100c9578063829c3428146100f25780638da5cb5b1461010957610099565b36610099577f7baf877f743c7240b0ee6b03d05a9d82c1d5b9c590beb886830f6f8edd07d88133344760405161007b9392919061039a565b60405180910390a1600033905060003490506100978282610134565b005b600080fd5b3480156100aa57600080fd5b506100b3610280565b6040516100c091906103d1565b60405180910390f35b3480156100d557600080fd5b506100f060048036038101906100eb919061041d565b6102a9565b005b3480156100fe57600080fd5b506101076102ec565b005b34801561011557600080fd5b5061011e61031a565b60405161012b919061046b565b60405180910390f35b600073ffffffffffffffffffffffffffffffffffffffff1660008054906101000a900473ffffffffffffffffffffffffffffffffffffffff1673ffffffffffffffffffffffffffffffffffffffff16036101c3576040517f08c379a00000000000000000000000000000000000000000000000000000000081526004016101ba906104e3565b60405180910390fd5b7f37cbc241ce82bd375b6bf6baab54838c229a2b43ad22127c80237293ad779ef960405160405180910390a160008054906101000a900473ffffffffffffffffffffffffffffffffffffffff1673ffffffffffffffffffffffffffffffffffffffff16634e0298a483836040518363ffffffff1660e01b815260040161024a929190610503565b600060405180830381600087803b15801561026457600080fd5b505af1158015610278573d6000803e3d6000fd5b505050505050565b60008060009054906101000a900473ffffffffffffffffffffffffffffffffffffffff16905090565b806000806101000a81548173ffffffffffffffffffffffffffffffffffffffff021916908373ffffffffffffffffffffffffffffffffffffffff16021790555050565b7f0ec7b0925c2fb854d28c0c4ae832ee922219f23b0b0440fe2916ec08bc0a8d6260405160405180910390a1565b600160009054906101000a900473ffffffffffffffffffffffffffffffffffffffff1681565b600073ffffffffffffffffffffffffffffffffffffffff82169050919050565b600061036b82610340565b9050919050565b61037b81610360565b82525050565b6000819050919050565b61039481610381565b82525050565b60006060820190506103af6000830186610372565b6103bc602083018561038b565b6103c9604083018461038b565b949350505050565b60006020820190506103e66000830184610372565b92915050565b600080fd5b6103fa81610360565b811461040557600080fd5b50565b600081359050610417816103f1565b92915050565b600060208284031215610433576104326103ec565b5b600061044184828501610408565b91505092915050565b600061045582610340565b9050919050565b6104658161044a565b82525050565b6000602082019050610480600083018461045c565b92915050565b600082825260208201905092915050565b7f756e696e697469616c697a656420746f6b656e41646472000000000000000000600082015250565b60006104cd601783610486565b91506104d882610497565b602082019050919050565b600060208201905081810360008301526104fc816104c0565b9050919050565b60006040820190506105186000830185610372565b610525602083018461038b565b939250505056fea264697066735822122035485acaf680c504a8cbfbb9158d8f43af23025e689cf579a959ab950c80d82764736f6c63430008110033",
  "linkReferences": {},
  "deployedLinkReferences": {}
}