{
  "_format": "hh-sol-artifact-1",
  "contractName": "Wallet",
  "sourceName": "contracts/Wallet.sol",
  "abi": [
    {
      "anonymous": false,
      "inputs": [],
      "name": "StartTransfer",
      "type": "event"
    },
    {
      "inputs": [],
      "name": "WTF",
      "outputs": [],
      "stateMutability": "nonpayable",
      "type": "function"
    },
    {
      "inputs": [],
      "name": "getNumber",
      "outputs": [
        {
          "internalType": "int256",
          "name": "",
          "type": "int256"
        }
      ],
      "stateMutability": "pure",
      "type": "function"
    },
    {
      "inputs": [],
      "name": "startTransfer",
      "outputs": [],
      "stateMutability": "nonpayable",
      "type": "function"
    }
  ],
  "bytecode": "0x608060405234801561001057600080fd5b5061010a806100206000396000f3fe6080604052348015600f57600080fd5b5060043610603c5760003560e01c8063158be5a2146041578063829c3428146049578063f2c9ecd8146051575b600080fd5b6047606b565b005b604f606d565b005b6057609b565b6040516062919060bb565b60405180910390f35b565b7f0ec7b0925c2fb854d28c0c4ae832ee922219f23b0b0440fe2916ec08bc0a8d6260405160405180910390a1565b60006003905090565b6000819050919050565b60b58160a4565b82525050565b600060208201905060ce600083018460ae565b9291505056fea2646970667358221220807c5f52ad87bfb0ab9a961a7735c386d8845a22d7e1b3970e874d4ab10f5a6964736f6c63430008110033",
  "linkReferences": {},
  "deployedLinkReferences": {}
}